:1000000044C300005DC300005BC3000059C300008F
:1000100057C3000055C3000053C3000051C3000084
:100020004FC300004DC300004BC300003EC500009D
:10003000B5C5000045C3000043C3000041C3000034
:100040003FC300003DC300003BC300003AC30000B3
:1000500037C3000035C3000033C3000031C30000C4
:100060002FC300002DC300002BC3000029C30000D4
:1000700027C3000025C3000023C3000021C30000E4
:100080001FC300001DC300001BC3000019C30000F4
:1000900017C3000015C3000000010000DF001200BC
:1000A000020000F1003B002200002C013F00210073
:1000B00000030109002201006B0115002101001C51
:1000C0000109000300008001040103090484014EBA
:1000D00002030904D40134000001C10601C1261243
:1000E00001000200000020C0167D04000101020092
:1000F0000109023B00020100C032090400000103B3
:10010000010100092111010001223F0007058303BD
:100110000800010904010001030000000921110188
:1001200000012215000705840320000105010906CE
:10013000A10175019508050719E029E715002501BA
:10014000810295017508810395057501050819015E
:10015000290591029501750391039506750815000F
:1001600025680507190029688100C00631FF097458
:10017000A1537508150026FF00952009758102C05E
:10018000040309044E034200610074006800720019
:100190006F006F006D002000450070006900700066
:1001A000680061006E006900650073002C0020008B
:1001B00043006F00730074006100720020004B0068
:1001C0006500790062006F00610072006400200029
:1001D0002D000000340343004D0020005300740044
:1001E0006F0072006D00200051007500690063000F
:1001F0006B0020004600690072006500200052007C
:100200006100700069006400000000000000000050
:10021000000000000000010080000000000000005D
:1002200000000000000000000000000000000000CE
:10023000000001000200010020000000000000009A
:10024000000000000000000000000000500000005E
:100250000000000000000000580000004A000000FC
:100260004D00000052000000570000000000000098
:100270000000010008000000000000000000000075
:100280000000000000000000000000005600000018
:10029000550000005E0000005B0000004B00000005
:1002A0004E00000063000000610000003800000004
:1002B000000000002F000000330000002D000000AF
:1002C00027000000340000001300000000000000C0
:1002D0001D0000002B0000000400000029000000A9
:1002E0001E000000290000001400000000000000B3
:1002F0001B0000003900000016000000270000006D
:100300001F000000640000001A0000000000000050
:10031000060000003C000000070000003B00000059
:10032000200000003D000000080000000500000063
:100330001900000017000000090000002200000062
:10034000210000000A00000015000000110000005C
:10035000100000001C0000000D0000002300000041
:10036000240000000B000000180000000000000046
:1003700036000000300000000E0000002E000000DB
:10038000250000003F0000000C0004016500000093
:1003900037000000400000000F0000004100000096
:1003A00026000000000000001200010040000000D4
:1003B000000000000000000000000000000000003D
:1003C0004600010004000000470000004500000056
:1003D000280000002A000000310000004200000058
:1003E0004300000044000000000000000000010085
:1003F00010000000000000000000010001000000EB
:100400003E00000000000000480000005100000015
:10041000530000005C000000590000004C00000088
:10042000000004012C0000005F0000004F000000ED
:10043000540000005D0000005A0000004900000068
:1004400000000000620000006000000000000000EA
:10045000000000000000010080000000000000001B
:10046000000000000000000000000000000000008C
:100470000000010002000100200000000000000058
:10048000000000000000000000000000500000001C
:100490000000000000000000580000004A000000BA
:1004A0004D00000052000000570000000000000056
:1004B0000000010008000000000000000000000033
:1004C00000000000000000000000000056000000D6
:1004D000550000005E0000005B0000004B000000C3
:1004E0004E00000063000000610000006500000095
:1004F000000000004700000033000000440000003E
:10050000430000003400000046000000000000002E
:100510001D0000002B000000040000002900000066
:100520003A00000029000000140000000000000054
:100530001B0000003900000016000000270000002A
:100540003B000000640000001A00000000000000F2
:10055000060000003C000000070000003B00000017
:100560003C0000003D000000290000004E0000009B
:100570002C00000017000000090000003E000000F1
:100580003D0000000A0000001500000035000000DA
:10059000350200001C000000500000003F00000079
:1005A000400000004B0000004A0000000000000076
:1005B0003600000048000000510000004500000027
:1005C000410000003F0000005200040165000000EF
:1005D00037000000400000004F0000004100000014
:1005E00042000000000000004D000100400000003B
:1005F00000000000000000000000000000000000FB
:100600004600010004000000470000004500000013
:10061000280000004C0000004900000042000000DB
:100620004300000044000000000000000000010042
:1006300010000000000000000000010001000000A8
:100640003E000000000000004800000051000000D3
:10065000530000005C000000590000004C00000046
:10066000000000002C0000005F0000004F000000B0
:10067000540000005D0000005A0000004900000026
:100680000000000062000000600011241FBECFEFD8
:10069000D4E0DEBFCDBF11E0A0E0B1E0E0E9F4E1DD
:1006A00002C005900D92A435B107D9F712E0A4E578
:1006B000B1E001C01D92A139B107E1F7DBD0E6C678
:1006C0009FCC1F920F920FB60F921124BF92CF9220
:1006D000DF92EF92FF920F931F932F933F934F93CD
:1006E0005F936F937F938F939F93AF93BF93CF93BA
:1006F000DF93EF93FF9372D1809165019091660132
:10070000A0916701B09168010196A11DB11D809370
:10071000650190936601A0936701B09368012091F1
:100720006301222399F02091690130916A0140917F
:100730006B0150916C0182179307A407B50709F468
:1007400080C080916401882309F461C0BB24CC245B
:100750008C2D93D0EB2CFF240BC0803811F1CF5897
:10076000DE4F880F8983F394E394FF2DF83029F14D
:10077000CE2DD0E0CC0FDD1F8E010F581E4FF8019B
:10078000D1808F2D8CD08D29F80181838F3729F767
:100790009081992321F78E2D49D5F80181818038E8
:1007A000F1F68E010F581E4FF80190819923B9F28E
:1007B0008E2D18D4F8018181D2CF88E0B80EC39471
:1007C000EC2DE23129F667D080915B0179D08091E0
:1007D00062018130A1F1459AFBD0FF91EF91DF9149
:1007E000CF91BF91AF919F918F917F916F915F91C9
:1007F0004F913F912F911F910F91FF90EF90DF90BC
:10080000CF90BF900F900FBE0F901F901895209122
:1008100065013091660140916701509168018091B6
:100820006D0190916E01A0916F01B0917001281738
:1008300039074A075B0709F089CF88D387CF4598E6
:10084000CBCF79D380916301882309F07ACF7ECF13
:10085000CBD0E0D08823E9F351D010926101E1E7D9
:10086000F1E010821182329682E0E139F807C9F78F
:1008700078940895EDDFACD0FFCF95B1E8E1F1E0D9
:10088000E80FF11D91788081982B95B985E08A95C4
:10089000F1F7000008958BB18E678BB9089590E051
:1008A000FC01EE0FFF1FE80FF91FE050FF4FA08182
:1008B000B1819C918281982381E009F080E00895C4
:1008C00045B190E0809590959C0100243695279540
:1008D0000794369527950794322F202D20784F774F
:1008E000242B25B928B182959295907F9827807FF7
:1008F000982780742F7B822B88B908950F931F93BC
:10090000DF93CF93CDB7DEB76E970FB6F894DEBF07
:100910000FBECDBF80E8809361001092610085B763
:10092000806885BF85B7806885BFCE010196FC01D0
:10093000A9E3B1E02FE00D9001922150E1F79E0173
:10094000205F3F4FD901EAE2F1E04FE001900D92C4
:100950004150E1F7FC018901808191815481652F2B
:100960006095DC014C9146234C9382819381DC019C
:100970004C91452B4C93D8018D919C9111971496D5
:100980005C91DC014C91452B4C93D80112968D91D2
:100990009C9113975095DC014C9145234C933596CF
:1009A0000B5F1F4FE217F307B9F684B5826084BD71
:1009B00085B5856085BD80E187BD6E960FB6F894DC
:1009C000DEBF0FBECDBFCF91DF911F910F91089574
:1009D000EEE6F0E08081826080830895EEE6F0E04C
:1009E00080818D7F808308951092630080EA8093D8
:1009F000D80086E089BD09B400FEFDCF80E8809371
:100A0000D8001092E00010925C018CE08093E2002C
:100A10007894089580915C01089580915C01882309
:100A200009F43FC08FB7F89493E09093E9002091C8
:100A3000E4009091E80095FD1DC08FBF80915C019E
:100A4000882379F12E5C8091E400821751F133E024
:100A500009C08FBF80915C01882319F18091E40067
:100A6000821709F18FB7F8943093E9009091E8006C
:100A700095FFEFCF909154019093F1001092F10007
:100A8000E5E5F1E091919093F10091E0EB35F90704
:100A9000C9F79AE39093E80010925D018FBF80E060
:100AA00008958FEF08958FEF08951F920F920FB65C
:100AB0000F9211242F938F939F93EF93FF93809125
:100AC000E1001092E10083FF0FC01092E90091E075
:100AD0009093EB001092EC0092E29093ED0098E07E
:100AE0009093F00010925C0182FF39C080915C010C
:100AF0008823A9F180915E018823A9F08150809319
:100B00005E01882381F484E08093E9008091E8000D
:100B100085FF06C01092F1008091E80085FDFACFB4
:100B20008AE38093E800209148012223C1F080915C
:100B30005F018F5F80935F0190E0837090700097FA
:100B400071F483E08093E9008091E80085FF07C09D
:100B500080915D018F5F80935D01281751F0FF91B7
:100B6000EF919F918F912F910F900FBE0F901F903B
:100B7000189510925D01809154018093F1001092BC
:100B8000F100E5E5F1E081918093F10081E0EB3542
:100B9000F807C9F78AE38093E800E1CF1F920F922C
:100BA0000FB60F9211242F933F934F935F936F9340
:100BB0007F938F939F93AF93BF93CF93DF93EF93E5
:100BC000FF931092E9008091E80083FF40C0E0911C
:100BD000F1006091F1002091F10030E04091F100CE
:100BE000942F80E0282B392B4091F10050E0709138
:100BF000F100972F80E0482B592BA091F100B0E035
:100C00007091F100972F80E0A82BB92B82EF809391
:100C1000E800663091F1653009F4F0C0693009F4FC
:100C200081C0683009F4F5C0662309F0A4C0809142
:100C3000E80080FFFCCFE23809F468C180E08093CF
:100C4000F1001092F1008EEF8093E80003C081E282
:100C50008093EB00FF91EF91DF91CF91BF91AF9126
:100C60009F918F917F916F915F914F913F912F91C4
:100C70000F900FBE0F901F9018958FE990E0BC0168
:100C80006550704007C00796695F7F4FF0E08E3D6A
:100C90009F07E9F2FC013797C591D4912C173D07C6
:100CA00091F7FB01C591D4914C175D0761F76E5F19
:100CB0007F4FFB0185919491282F392F6E5F7F4FD5
:100CC000FB016491AF3FB10511F008F0B3C0A61766
:100CD00008F4AEC07EEF8091E80090E0AC01457072
:100CE000507041155105B9F382FDB4CF562F6132D2
:100CF00008F45EC050E2C901452FFC010196E49161
:100D0000E093F1004150C9F7852F815090E00196A2
:100D1000280F391F651B7093E8006623E1F65032F7
:100D2000D1F298CFEE2359F520935C018EEF80939A
:100D3000E80041E087ED90E04093E900FC01019676
:100D4000E491E093EB00EE2369F09C012F5F3F4FAD
:100D5000FC0184918093EC00C9010196F901249172
:100D60002093ED004F5F453039F78EE18093EA0024
:100D70001092EA006FCF6130F9F06330E9F041156D
:100D8000510509F09CC0E13A09F466C0E13209F06E
:100D90005ECF693009F451C06A3009F4C4C06B30C9
:100DA00009F055CF209349018EEF8093E80052CF90
:100DB000662309F0A0CFAECFE23009F72115310547
:100DC000F1F6742F7F77872F81508430C0F68EEF35
:100DD0008093E8007093E900633009F438CF89E12B
:100DE0008093EB0081E090E002C0880F991F7A9514
:100DF000E2F78093EA001092EA002CCF8EEF809306
:100E0000E8008091E80080FFFCCF20682093E30099
:100E100021CFE03809F0B3CF8091E80080FFFCCF0C
:100E200080915C018093F1008EEF8093E80012CFF7
:100E30006A2F50CFAFEFB0E04ACF8091E80082FF39
:100E4000FCCF8091F10080935B018BEF8093E800F1
:100E50008EEF8093E800FECE613089F0623019F1A8
:100E6000633009F0F4CE8091E80080FFFCCF8091E0
:100E700049018093F1008EEF8093E800EBCE8091E2
:100E8000E80080FFFCCF809154018093F100109224
:100E9000F100E5E5F1E081918093F10081E0EB352F
:100EA000F807C9F781CF8091E80080FFFCCF8091DF
:100EB00048018093F1008EEF8093E800CBCE413063
:100EC000510509F0C4CE613009F0C1CEE13A09F014
:100ED000BECE4EEF8091E80090E09C01257030700E
:100EE00021153105B9F382FDB5CE9A2FA132C0F09C
:100EF00090E2892F1092F1008150E1F7A91B4093F5
:100F0000E800AA2339F7903229F3A4CE4093E900F0
:100F10009091EB0081E095FF80E01092E9008FCE88
:100F2000AA2339F7EBCF3093480110925D018EEF81
:100F30008093E8008FCE10926301109269011092A5
:100F40006A0110926B0110926C01089581E0809308
:100F5000640110926D0110926E0110926F01109257
:100F6000700108950F931F93CF93DF930091620157
:100F7000CAE4D1E0A5E5B1E010E020C0802F90E008
:100F800060E970E071D2AC01420F511D9A01220F4D
:100F9000331F220F331F245F3D4FF90145915491B8
:100FA00040704115510509F0152BF90145915491F7
:100FB0004C93119651E0C035D50749F029912F3F48
:100FC000E9F61C92119651E0C035D507B9F780912A
:100FD0006101812B8093540120DDDF91CF911F911E
:100FE0000F9108950F931F93CF93DF93182F0091C4
:100FF0005201081759F140916201C82FD0E0842FA7
:1010000090E060E970E030D2FC01EC0FFD1FEE0FC4
:10101000FF1FEE0FFF1FE65FFD4F2591349121303A
:1010200009F476C0EAE4F1E080E09191911779F15A
:101030008F5F8630D1F796DFCC0FDD1FCF58DE4FA4
:101040001882DF91CF911F910F91089580915101E6
:10105000813049F1882359F0823009F473C0C02FE0
:10106000D0E08FEF8093520110926301E5CF809121
:1010700063018823A1F7C02FD0E0FE01EE0FFF1F10
:10108000EF58FE4F80818F7780936201EACF8630E0
:1010900090F6E82FF0E0E65BFE4F918190838F5F42
:1010A0008630B9F7C8CF802F90E0FC01EE0FFF1F0C
:1010B000EF58FE4F20812F7720936201209163012A
:1010C000222309F43DC080914E0180934F0180910D
:1010D0004D0180934E0180914C0180934D01809190
:1010E0004B0180934C0180914A0180934B01009306
:1010F0004A0138DFEAE4F1E080E09191091709F450
:101100007CC08F5F8630C9F72DDFC12FD0E0A9CF1B
:10111000842F90E060E970E0A7D1FC01EC0FFD1F87
:10112000EE0FFF1FEE0FFF1FE45FFD4F85919491BF
:1011300080959091610198239093610113DF7CCF9A
:10114000EC018FCF80916301882309F43CC080912A
:10115000620190E060E970E087D1C12FD0E08C0F90
:101160009D1F880F991F880F991F865F9D4FFC0157
:1011700025913491932F90958091610189238093DB
:10118000610180914E0180934F0180914D018093C8
:101190004E0180914C0180934D0180914B018093D1
:1011A0004C0180914A0180934B0110934A01DADE91
:1011B000EAE4F1E080E09191911761F18F5F863070
:1011C000D1F7D0DE4ECF8091620190E060E970E00F
:1011D0004BD1C02FD0E08C0F9D1F880F991F880F17
:1011E000991F865F9D4FFC01859194919095809108
:1011F0006101892380936101E4CF863008F084CFB8
:10120000E82FF0E0E65BFE4F918190838F5F8630A0
:10121000B9F77ACF8630A8F6E82FF0E0E65BFE4F0C
:10122000918190838F5F8630B9F7CBCF1F93CF9397
:10123000DF93182FC82FD0E040916201FE01EE0F1E
:10124000FF1FEF58FE4F842F80688083E09152018A
:10125000EF3F29F080916401882309F43FC0842F77
:1012600090E060E970E000D1FC01EC0FFD1FEE0F93
:10127000FF1FEE0FFF1FE65FFD4F659174919B010D
:1012800030702230310509F4A3C02430310509F44F
:101290005FC02330310509F48CC02130310509F4D9
:1012A000CAC01092630180914E0180934F018091DA
:1012B0004D0180934E0180914C0180934D018091AE
:1012C0004B0180934C0180914A0180934B01109314
:1012D0004A0148DEDF91CF911F91089580914E0120
:1012E00080934F0180914D0180934E0180914C017C
:1012F00080934D0180914B0180934C0180914A0174
:1013000080934B01E0934A01F0E0EE0FFF1FEF588E
:10131000FE4F80818F778093620124DE8FEF809370
:101320005201109264018093510110926D0110924C
:101330006E0110926F01109270011092690110926B
:101340006A0110926B0110926C014091620187CF8B
:10135000E1E0E09363011092640120916501309116
:1013600066014091670150916801DA01C9018C5012
:101370009E4FAF4FBF4F8093690190936A01A09336
:101380006B01B0936C012A563F4F4F4F5F4F209334
:101390006D0130936E0140936F0150937001E093A3
:1013A00051011093520170936201DF91CF911F910F
:1013B000089581E0809363011092640110925101BD
:1013C0001093520170936201DF91CF911F910895A4
:1013D00081E0809363011092640180916501909196
:1013E0006601A0916701B09168019C01AD012C508C
:1013F0003E4F4F4F5F4F2093690130936A014093F6
:101400006B0150936C018A569F4FAF4FBF4F809333
:101410006D0190936E01A0936F01B093700182E013
:10142000809351011093520180916101872B809329
:10143000610198DD4FCF842F90E060E970E014D017
:10144000C80FD91FCC0FDD1FCC0FDD1FC45FDD4FD0
:10145000FE018591949120916101282B20936101D7
:10146000109263017FDD36CF5527002480FF02C034
:10147000060E571F660F771F6115710521F09695AF
:101480008795009799F7952F802D0895F894FFCFB1
:1014900026000429000129000226008029002029B5
:1014A00000402900042900103C6638721E3E62602C
:1014B00064686A6C6E70583A1A1824002500FE277A
:1014C000002800602A002B000024002500002700CF
:1014D0002800842A002B00777D01FFFFFFFFFFFF1C
:0414E000FFFFFF000B
:00000001FF
