:1000000004C100001DC100001BC1000019C1000097
:1000100017C1000015C1000013C1000011C100008C
:100020000FC100000DC100000BC1000071C3000032
:10003000E8C3000005C1000003C1000001C10000C9
:10004000FFC00000FDC00000FBC00000AFC1000009
:10005000F7C00000F5C00000F3C00000F1C00000D0
:10006000EFC00000EDC00000EBC00000E9C00000E0
:10007000E7C00000E5C00000E3C00000E1C00000F0
:10008000DFC00000DDC00000DBC00000D9C0000000
:10009000D7C00000D5C0000000010000DF00120042
:1000A000020000F1003B002200002C013F00210073
:1000B00000030109002201006B0115002101001C51
:1000C0000109000300008001040103090484014EBA
:1000D00002030904D40134000001C10601C1261243
:1000E00001000200000020C0167D04000101020092
:1000F0000109023B00020100C032090400000103B3
:10010000010100092111010001223F0007058303BD
:100110000800010904010001030000000921110188
:1001200000012215000705840320000105010906CE
:10013000A10175019508050719E029E715002501BA
:10014000810295017508810395057501050819015E
:10015000290591029501750391039506750815000F
:1001600025680507190029688100C00631FF097458
:10017000A1537508150026FF00952009758102C05E
:10018000040309044E034200610074006800720019
:100190006F006F006D002000450070006900700066
:1001A000680061006E006900650073002C0020008B
:1001B00043006F00730074006100720020004B0068
:1001C0006500790062006F00610072006400200029
:1001D0002D000000340343004D0020005300740044
:1001E0006F0072006D00200051007500690063000F
:1001F0006B0020004600690072006500200052007C
:100200006100700069006400000011241FBECFEF80
:10021000D4E0DEBFCDBF12E0A0E0B1E0E4ECFBE053
:1002200002C005900D92A237B107D9F713E0A2E7FB
:10023000B2E001C01D92A23AB107E1F740D1C0C4BB
:10024000DFCECF93DF9330917302E0E2F2E0A6E7D6
:10025000B2E012C0832F90E060E970E09FD4EC011F
:10026000C20FD11DCC0FDD1FC050DF4F89818D9390
:1002700082E0E632F80749F021912F3F59F780E0FC
:100280008D9382E0E632F807B9F78091720280938D
:100290007502F6D1DF91CF910895482F282F30E0D5
:1002A000F901EE0FFF1FEE57FD4F81E08083A09113
:1002B00073028A2F90E060E970E070D4FC01E20FD5
:1002C000F31FEE0FFF1FE050FF4F80818130B9F028
:1002D000809124028093250280912302809324023E
:1002E0008091220280932302809121028093220236
:1002F000809120028093210240932002A2CF8A2F76
:1003000090E060E970E04AD4280F391F220F331FB4
:1003100020503F4F80917202F9019181892B809387
:1003200072028FCF482F282F30E0F901EE0FFF1F08
:10033000EE57FD4F1082A09173028A2F90E060E982
:1003400070E02CD4FC01E20FF31FEE0FFF1FE05012
:10035000FF4F8081813051F0E0E2F2E080E0919146
:100360009417C1F08F5F8630D1F76BCF8A2F90E062
:1003700060E970E013D4280F391F220F331F20507B
:100380003F4FF9019181909580917202892380936A
:10039000720257CF863048F7E82FF0E0E05EFD4F5D
:1003A000918190838F5F8630B9F74BCF1F920F9268
:1003B0000FB60F921124BF92CF92DF92EF92FF926D
:1003C0000F931F932F933F934F935F936F937F935D
:1003D0008F939F93AF93BF93CF93DF93EF93FF934D
:1003E00030D1BB24CC248C2D6DD0EB2CFF240BC042
:1003F000803811F1CE57DD4F880F8983F394E39451
:10040000FF2DF83029F1CE2DD0E0CC0FDD1F8E016D
:100410000E571D4FF801D1808F2D66D08D29F80120
:1004200081838F3729F79081992321F78E2D35DF2E
:10043000F80181818038F1F68E010E571D4FF801C9
:1004400090819923B9F28E2D6DDFF8018181D2CF91
:1004500088E0B80EC394EC2DE23129F641D08091AA
:100460007C0253D0E8D0FF91EF91DF91CF91BF9103
:10047000AF919F918F917F916F915F914F913F913C
:100480002F911F910F91FF90EF90DF90CF90BF9031
:100490000F900FBE0F901F901895D9D0EED08823E3
:1004A000E9F35FD010927202E2E8F2E0108211826A
:1004B000329683E0E23AF807C9F778940895EDDFC1
:1004C000BAD0FFCF95B1EFE3F2E0E80FF11D9178DC
:1004D0008081982B95B985E08A95F1F70000089501
:1004E0008BB18E678BB9089590E0FC01EE0FFF1F72
:1004F000E80FF91FE95DFD4FA081B1819C918281D8
:10050000982381E009F080E0089545B190E080955E
:1005100090959C010024369527950794369527954C
:100520000794322F202D20784F77242B25B948B1FE
:100530009C01220F331F22953295307F3227207F76
:10054000322720724F7D242B28B928B182959295AD
:10055000907F9827807F982780742F7B822B88B983
:1005600008950F931F93DF93CF93CDB7DEB76E97A8
:100570000FB6F894DEBF0FBECDBF80E88093610058
:100580001092610085B7806885BF85B7806885BF98
:10059000CE010196FC01A0E6B2E02FE00D900192A1
:1005A0002150E1F79E01205F3F4FD901E1E5F2E0E4
:1005B0004FE001900D924150E1F7FC0189018081EB
:1005C00091815481652F6095DC014C9146234C93B9
:1005D00082819381DC014C91452B4C93D8018D9104
:1005E0009C91119714965C91DC014C91452B4C9396
:1005F000D80112968D919C9113975095DC014C91E6
:1006000045234C9335960B5F1F4FE217F307B9F65E
:1006100084B5826084BD85B5856085BD80E187BD78
:100620006E960FB6F894DEBF0FBECDBFCF91DF91AF
:100630001F910F910895EEE6F0E080818260808343
:100640000895EEE6F0E080818D7F8083089510921A
:10065000630080EA8093D80086E089BD09B400FE7B
:10066000FDCF80E88093D8001092E00010927D02C8
:100670008CE08093E2007894089580917D02089543
:1006800080917D02882309F43FC08FB7F89493E0EE
:100690009093E9002091E4009091E80095FD1DC041
:1006A0008FBF80917D02882379F12E5C8091E400D8
:1006B000821751F133E009C08FBF80917D028823FA
:1006C00019F18091E400821709F18FB7F894309303
:1006D000E9009091E80095FFEFCF9091750290931B
:1006E000F1001092F100E6E7F2E091919093F100B1
:1006F00092E0EC37F907C9F79AE39093E80010927B
:100700007E028FBF80E008958FEF08958FEF0895E8
:100710001F920F920FB60F9211242F938F939F93D6
:10072000EF93FF938091E1001092E10083FF0FC0EF
:100730001092E90091E09093EB001092EC0092E2AD
:100740009093ED0098E09093F00010927D0282FF6C
:1007500039C080917D028823A9F180917F0288238E
:10076000A9F0815080937F02882381F484E08093F4
:10077000E9008091E80085FF06C01092F1008091A9
:10078000E80085FDFACF8AE38093E80020916F02AC
:100790002223C1F0809180028F5F8093800290E0DD
:1007A00083709070009771F483E08093E9008091EA
:1007B000E80085FF07C080917E028F5F80937E02F4
:1007C000281751F0FF91EF919F918F912F910F90EA
:1007D0000FBE0F901F90189510927E0280917502A7
:1007E0008093F1001092F100E6E7F2E081918093AE
:1007F000F10082E0EC37F807C9F78AE38093E8005C
:10080000E1CF1F920F920FB60F9211242F933F93B7
:100810004F935F936F937F938F939F93AF93BF9308
:10082000CF93DF93EF93FF931092E9008091E8005C
:1008300083FF40C0E091F1006091F1002091F10050
:1008400030E04091F100942F80E0282B392B40912B
:10085000F10050E07091F100972F80E0482B592B68
:10086000A091F100B0E07091F100972F80E0A82BEB
:10087000B92B82EF8093E800663091F1653009F47E
:10088000F0C0693009F481C0683009F4F5C066230E
:1008900009F0A4C08091E80080FFFCCFE23809F4A1
:1008A00068C180E08093F1001092F1008EEF809398
:1008B000E80003C081E28093EB00FF91EF91DF91AC
:1008C000CF91BF91AF919F918F917F916F915F91E8
:1008D0004F913F912F910F900FBE0F901F90189541
:1008E0008FE990E0BC016550704007C00796695FD2
:1008F0007F4FF0E08E3D9F07E9F2FC013797C591ED
:10090000D4912C173D0791F7FB01C591D4914C1759
:100910005D0761F76E5F7F4FFB0185919491282FF2
:10092000392F6E5F7F4FFB016491AF3FB10511F02E
:1009300008F0B3C0A61708F4AEC07EEF8091E800BF
:1009400090E0AC014570507041155105B9F382FD3E
:10095000B4CF562F613208F45EC050E2C901452F72
:10096000FC010196E491E093F1004150C9F7852F15
:10097000815090E00196280F391F651B7093E800A5
:100980006623E1F65032D1F298CFEE2359F5209349
:100990007D028EEF8093E80041E087ED90E0409388
:1009A000E900FC010196E491E093EB00EE2369F08D
:1009B0009C012F5F3F4FFC0184918093EC00C901A3
:1009C0000196F90124912093ED004F5F453039F7EE
:1009D0008EE18093EA001092EA006FCF6130F9F067
:1009E0006330E9F04115510509F09CC0E13A09F482
:1009F00066C0E13209F05ECF693009F451C06A3057
:100A000009F4C4C06B3009F055CF209370028EEF0B
:100A10008093E80052CF662309F0A0CFAECFE2303A
:100A200009F721153105F1F6742F7F77872F815053
:100A30008430C0F68EEF8093E8007093E900633055
:100A400009F438CF89E18093EB0081E090E002C0A7
:100A5000880F991F7A95E2F78093EA001092EA00D6
:100A60002CCF8EEF8093E8008091E80080FFFCCFD0
:100A700020682093E30021CFE03809F0B3CF8091C4
:100A8000E80080FFFCCF80917D028093F1008EEF23
:100A90008093E80012CF6A2F50CFAFEFB0E04ACF7B
:100AA0008091E80082FFFCCF8091F10080937C026E
:100AB0008BEF8093E8008EEF8093E800FECE6130EC
:100AC00089F0623019F1633009F0F4CE8091E800CA
:100AD00080FFFCCF809170028093F1008EEF8093B5
:100AE000E800EBCE8091E80080FFFCCF809175029A
:100AF0008093F1001092F100E6E7F2E0819180939B
:100B0000F10082E0EC37F807C9F781CF8091E80067
:100B100080FFFCCF80916F028093F1008EEF809375
:100B2000E800CBCE4130510509F0C4CE613009F068
:100B3000C1CEE13A09F0BECE4EEF8091E80090E0E0
:100B40009C012570307021153105B9F382FDB5CEB9
:100B50009A2FA132C0F090E2892F1092F1008150BB
:100B6000E1F7A91B4093E800AA2339F7903229F353
:100B7000A4CE4093E9009091EB0081E095FF80E0E6
:100B80001092E9008FCEAA2339F7EBCF30936F0292
:100B900010927E028EEF8093E8008FCE55270024BE
:100BA00080FF02C0060E571F660F771F6115710583
:100BB00021F096958795009799F7952F802D0895A8
:040BC000F894FFCFD7
:100BC40000000000000001800000000000000000A0
:100BD40000000000010201200000000000000000ED
:100BE4000050000000000058004A004D0052005719
:100BF40000000000010800000000000000000000E8
:100C040000560055005E005B004B004E006300611F
:100C140000380000002F0033002D0027003400139B
:100C24000000001D002B00040035001E00290014E4
:100C34000000001B00390016003A001F0064001A6F
:100C440000000006003C0007003B0020003D0008B7
:100C5400000500190017000900220021000A0015F0
:100C640000110010001C000D00230024000B0018CC
:100C7400000000360030000E002E0025003F000C5E
:100C8400006500370040000F0041002600000012FC
:100C9400014000000000000000000046010400477D
:100CA40000450028002A00310042004300440000AF
:100CB40000000110000000000101003E0000004897
:100CC40000510053005C0059004C0000002C005FF0
:100CD400004F0054005D005A0049000000620060AB
:100CE400FFFFFFFFFFFFFF26000429000129000288
:100CF4002600802900202900402900042900103CF6
:100D04006638721E3E626064686A6C6E70583A1A85
:100D14001824002500FE27002800602A002B00006C
:100D2400240025000027002800842A002B00777D5A
:020D34000100BC
:00000001FF
